{
  "_format": "hh3-artifact-1",
  "contractName": "TruySuatNongSan",
  "sourceName": "contracts/TruySuatNongSan.sol",
  "abi": [
    {
      "anonymous": false,
      "inputs": [
        {
          "indexed": false,
          "internalType": "uint256",
          "name": "id",
          "type": "uint256"
        },
        {
          "indexed": false,
          "internalType": "string",
          "name": "thongTinMoi",
          "type": "string"
        }
      ],
      "name": "CapNhatTrangThaiMoi",
      "type": "event"
    },
    {
      "anonymous": false,
      "inputs": [
        {
          "indexed": false,
          "internalType": "uint256",
          "name": "id",
          "type": "uint256"
        },
        {
          "indexed": false,
          "internalType": "string",
          "name": "ten",
          "type": "string"
        },
        {
          "indexed": false,
          "internalType": "address",
          "name": "nguoiTao",
          "type": "address"
        }
      ],
      "name": "LoHangDuocTao",
      "type": "event"
    },
    {
      "inputs": [
        {
          "internalType": "uint256",
          "name": "_id",
          "type": "uint256"
        },
        {
          "internalType": "string",
          "name": "_thongTinMoi",
          "type": "string"
        }
      ],
      "name": "capNhatTrangThai",
      "outputs": [],
      "stateMutability": "nonpayable",
      "type": "function"
    },
    {
      "inputs": [
        {
          "internalType": "uint256",
          "name": "",
          "type": "uint256"
        }
      ],
      "name": "danhSachSanPham",
      "outputs": [
        {
          "internalType": "string",
          "name": "ten",
          "type": "string"
        },
        {
          "internalType": "string",
          "name": "lichSu",
          "type": "string"
        },
        {
          "internalType": "address",
          "name": "nguoiSoHuu",
          "type": "address"
        },
        {
          "internalType": "bool",
          "name": "tonTai",
          "type": "bool"
        }
      ],
      "stateMutability": "view",
      "type": "function"
    },
    {
      "inputs": [
        {
          "internalType": "uint256",
          "name": "_id",
          "type": "uint256"
        },
        {
          "internalType": "string",
          "name": "_ten",
          "type": "string"
        },
        {
          "internalType": "string",
          "name": "_thongTinDauTien",
          "type": "string"
        }
      ],
      "name": "taoMoiLoHang",
      "outputs": [],
      "stateMutability": "nonpayable",
      "type": "function"
    }
  ],
  "bytecode": "0x608060405234801561000f575f80fd5b50610de38061001d5f395ff3fe608060405234801561000f575f80fd5b506004361061003f575f3560e01c806306667049146100435780638ec9b1a31461005f578063f16834f71461007b575b5f80fd5b61005d60048036038101906100589190610638565b6100ae565b005b610079600480360381019061007491906106c0565b61022c565b005b6100956004803603810190610090919061071a565b610355565b6040516100a59493929190610818565b60405180910390f35b5f808481526020019081526020015f2060020160149054906101000a900460ff161561010f576040517f08c379a0000000000000000000000000000000000000000000000000000000008152600401610106906108b3565b60405180910390fd5b60405180608001604052808381526020018281526020013373ffffffffffffffffffffffffffffffffffffffff168152602001600115158152505f808581526020019081526020015f205f820151815f01908161016c9190610acb565b5060208201518160010190816101829190610acb565b506040820151816002015f6101000a81548173ffffffffffffffffffffffffffffffffffffffff021916908373ffffffffffffffffffffffffffffffffffffffff16021790555060608201518160020160146101000a81548160ff0219169083151502179055509050507f053d312fbfcdaecd06449b8c654eebba08f3c3e392bcd6b2e0c67bd97a92fd0683833360405161021f93929190610ba9565b60405180910390a1505050565b5f808381526020019081526020015f2060020160149054906101000a900460ff1661028c576040517f08c379a000000000000000000000000000000000000000000000000000000000815260040161028390610c2f565b60405180910390fd5b5f805f8481526020019081526020015f20905080600101826040516020016102b5929190610d51565b6040516020818303038152906040528160010190816102d49190610acb565b5033816002015f6101000a81548173ffffffffffffffffffffffffffffffffffffffff021916908373ffffffffffffffffffffffffffffffffffffffff1602179055507f5232ba13e5279bd13ea9c02ec84c6802f8d6188fc8068a4c75f8e77806f1eb7e8383604051610348929190610d7f565b60405180910390a1505050565b5f602052805f5260405f205f91509050805f018054610373906108fe565b80601f016020809104026020016040519081016040528092919081815260200182805461039f906108fe565b80156103ea5780601f106103c1576101008083540402835291602001916103ea565b820191905f5260205f20905b8154815290600101906020018083116103cd57829003601f168201915b5050505050908060010180546103ff906108fe565b80601f016020809104026020016040519081016040528092919081815260200182805461042b906108fe565b80156104765780601f1061044d57610100808354040283529160200191610476565b820191905f5260205f20905b81548152906001019060200180831161045957829003601f168201915b505050505090806002015f9054906101000a900473ffffffffffffffffffffffffffffffffffffffff16908060020160149054906101000a900460ff16905084565b5f604051905090565b5f80fd5b5f80fd5b5f819050919050565b6104db816104c9565b81146104e5575f80fd5b50565b5f813590506104f6816104d2565b92915050565b5f80fd5b5f80fd5b5f601f19601f8301169050919050565b7f4e487b71000000000000000000000000000000000000000000000000000000005f52604160045260245ffd5b61054a82610504565b810181811067ffffffffffffffff8211171561056957610568610514565b5b80604052505050565b5f61057b6104b8565b90506105878282610541565b919050565b5f67ffffffffffffffff8211156105a6576105a5610514565b5b6105af82610504565b9050602081019050919050565b828183375f83830152505050565b5f6105dc6105d78461058c565b610572565b9050828152602081018484840111156105f8576105f7610500565b5b6106038482856105bc565b509392505050565b5f82601f83011261061f5761061e6104fc565b5b813561062f8482602086016105ca565b91505092915050565b5f805f6060848603121561064f5761064e6104c1565b5b5f61065c868287016104e8565b935050602084013567ffffffffffffffff81111561067d5761067c6104c5565b5b6106898682870161060b565b925050604084013567ffffffffffffffff8111156106aa576106a96104c5565b5b6106b68682870161060b565b9150509250925092565b5f80604083850312156106d6576106d56104c1565b5b5f6106e3858286016104e8565b925050602083013567ffffffffffffffff811115610704576107036104c5565b5b6107108582860161060b565b9150509250929050565b5f6020828403121561072f5761072e6104c1565b5b5f61073c848285016104e8565b91505092915050565b5f81519050919050565b5f82825260208201905092915050565b5f5b8381101561077c578082015181840152602081019050610761565b5f8484015250505050565b5f61079182610745565b61079b818561074f565b93506107ab81856020860161075f565b6107b481610504565b840191505092915050565b5f73ffffffffffffffffffffffffffffffffffffffff82169050919050565b5f6107e8826107bf565b9050919050565b6107f8816107de565b82525050565b5f8115159050919050565b610812816107fe565b82525050565b5f6080820190508181035f8301526108308187610787565b905081810360208301526108448186610787565b905061085360408301856107ef565b6108606060830184610809565b95945050505050565b7f4c6f2068616e6720766f69204944206e617920646120746f6e207461692e00005f82015250565b5f61089d601e8361074f565b91506108a882610869565b602082019050919050565b5f6020820190508181035f8301526108ca81610891565b9050919050565b7f4e487b71000000000000000000000000000000000000000000000000000000005f52602260045260245ffd5b5f600282049050600182168061091557607f821691505b602082108103610928576109276108d1565b5b50919050565b5f819050815f5260205f209050919050565b5f6020601f8301049050919050565b5f82821b905092915050565b5f6008830261098a7fffffffffffffffffffffffffffffffffffffffffffffffffffffffffffffffff8261094f565b610994868361094f565b95508019841693508086168417925050509392505050565b5f819050919050565b5f6109cf6109ca6109c5846104c9565b6109ac565b6104c9565b9050919050565b5f819050919050565b6109e8836109b5565b6109fc6109f4826109d6565b84845461095b565b825550505050565b5f90565b610a10610a04565b610a1b8184846109df565b505050565b5b81811015610a3e57610a335f82610a08565b600181019050610a21565b5050565b601f821115610a8357610a548161092e565b610a5d84610940565b81016020851015610a6c578190505b610a80610a7885610940565b830182610a20565b50505b505050565b5f82821c905092915050565b5f610aa35f1984600802610a88565b1980831691505092915050565b5f610abb8383610a94565b9150826002028217905092915050565b610ad482610745565b67ffffffffffffffff811115610aed57610aec610514565b5b610af782546108fe565b610b02828285610a42565b5f60209050601f831160018114610b33575f8415610b21578287015190505b610b2b8582610ab0565b865550610b92565b601f198416610b418661092e565b5f5b82811015610b6857848901518255600182019150602085019450602081019050610b43565b86831015610b855784890151610b81601f891682610a94565b8355505b6001600288020188555050505b505050505050565b610ba3816104c9565b82525050565b5f606082019050610bbc5f830186610b9a565b8181036020830152610bce8185610787565b9050610bdd60408301846107ef565b949350505050565b7f4c6f2068616e67206b686f6e6720746f6e5461692e00000000000000000000005f82015250565b5f610c1960158361074f565b9150610c2482610be5565b602082019050919050565b5f6020820190508181035f830152610c4681610c0d565b9050919050565b5f81905092915050565b5f8154610c63816108fe565b610c6d8186610c4d565b9450600182165f8114610c875760018114610c9c57610cce565b60ff1983168652811515820286019350610cce565b610ca58561092e565b5f5b83811015610cc657815481890152600182019150602081019050610ca7565b838801955050505b50505092915050565b7f207c2000000000000000000000000000000000000000000000000000000000005f82015250565b5f610d0b600383610c4d565b9150610d1682610cd7565b600382019050919050565b5f610d2b82610745565b610d358185610c4d565b9350610d4581856020860161075f565b80840191505092915050565b5f610d5c8285610c57565b9150610d6782610cff565b9150610d738284610d21565b91508190509392505050565b5f604082019050610d925f830185610b9a565b8181036020830152610da48184610787565b9050939250505056fea264697066735822122065163cf23087dadb347fad9fef1f021cdc83cc95dbcd7c8531bc167040816b5a64736f6c63430008140033",
  "linkReferences": {},
  "deployedLinkReferences": {},
  "immutableReferences": {},
  "inputSourceName": "project/contracts/TruySuatNongSan.sol",
  "buildInfoId": "solc-0_8_20-83913525071cd25cfe8bfcc51bed50f7434785df"
}